:060000000200210200DAFB
:01000B0032C2
:0100130032BA
:03001B000200CF11
:06007A00750800750B0083
:0300A10002001E3C
:03001E000200DEFF
:2000A400758921758DFD758BFD759850D28E22C2A5D2A4C2A7D2A622758C00758A00D28C04
:2000C400D2ABD2A9D2AFD2A8C28822C28D758C00758A00D28C32750B01321200A41200B3B0
:2000E4001200BC750D04750E00750F0375100090001812043A750D04750E00750F107510FF
:200104000090000012043A750D04750E00750F1075100090001612043A12028F1203171202
:20012400038C9019CB75F08012086DE4B55C02800A7402B55C030201E080F090000875F0F1
:200144004012084CE50B6057750C0190000975F0401203DA750C0090000A75F0401203DAF0
:20016400E5097022750D2CF50E750F01F51090000112043A750D2C750E00750F02751000A3
:2001840090000112043A1208A5E56024F05010E509600C9019DD75F08012086D750B0074C2
:2001A4003FB50802800302012F7508009019F375F08012086D120FA89019F375F08012089F
:2001C4006D9019F675F08012086D901A8675F08012086D755E00755C0202012F2098030272
:2001E400012FAF99C298BF0D028024BF0A02801FAD5B7E00ED24FEFDEE34FFFEAB5A7C001B
:20020400C3EB9DEC64808EF063F08095F04042E55A243DF8762EE55A04243DF87600901970
:20022400F375F08012086D90003D75F04012086D9019F375F08012086D755A0012136212F2
:200244000F809019F375F08012086D755A0002012FBF0819E55A6015E55A243DF87600154B
:200264005A901B0175F08012086D02012FE55A243DF8A607E55A243DFF7E007D408F828E18
:20028400838DF0120838055A02012F7517047518007519C0751A00751BA8E4F51CF51DF549
:2002A4001E751F66F52090000F1204A07517047518007519FF751A00751BFF751C00751DCD
:2002C400FFE4F51EF51FF5209000051204A07517047518007519C0751A00751BA8E4F51C89
:2002E400F51DF51E751F01F5209000011204A07523127524007525C47526007527BA7528B5
:200304000075291C752A00752B3E752C0090004E02053575110C7512007513E77514007561
:20032400159D75160090000412046A750D0C750E00750F0275100090000012043A750D0CDE
:20034400750E00750F0175100090000112043A75170C7518007519C0751A00751BA8E4F518
:200364001CF51DF51E751F65F52090000C1204A075110C7512007513E775140075159D752B
:20038400160090001002046A750D2C750E00750F0175100090000012043A75112C751200DF
:2003A4007513E775140075159E75160090000412046A750D2C750E00750F017510009000AF
:2003C4000112043A750D2C750E00750F0275100090000102043AAD82AE83AFF0E4B50C0215
:2003E40080077401B50C4E8026752108752200900003C007C006C0051204E2AC83D005D062
:2004040006D0078C038D828E838FF0EB02188F752128752200900003C007C006C0051204E9
:16042400E2AC83D005D006D0078C038D828E838FF0EB02188F224B
:2019CB00536574757020436F6D706C657465200D0A00476F696E67206261636B20746F2093
:2019EB00736C6565700D0A000D0A005365742F4368616E6765205254552041646472657366
:201A0B00732028302D3929207573696E673A205254553D230D0A5365742F4368616E67658E
:201A2B002049502061646472657373207573696E673A2049503D2323232E2323232E2323F2
:201A4B00232E2323230D0A5365742F4368616E6765205375626E6574204D61736B207573C4
:201A6B00696E673A205355423D2323232E2323232E2323232E2323230D0A005365742F43B9
:201A8B0068616E67652047617465776179207573696E673A20474154453D2323232E23236B
:201AAB00232E2323232E2323230D0A5365742F4368616E6765204D414320416464726573AE
:201ACB0073207573696E673A204D41433D2323232323232323232323230D0A4368616E673E
:1A1AEB0065204D6F6465207573696E673A204D4F44453D0D0A00082008008E
:20043A00AE82AF83C007C0061205ADD006D0078F82C007C0061205B3D006D0078E82120506
:20045A00B3850D821205B3850F821205B30205B0AE82AF83C007C0061205ADD006D0078F6B
:20047A0082C007C0061205B3D006D0078E821205B38511821205B38513821205B385158220
:20049A001205B30205B0AE82AF83C007C0061205ADD006D0078F82C007C0061205B3D00623
:2004BA00D0078E821205B38517821205B38519821205B3851B821205B3851D821205B38540
:2004DA001F821205B30205B0AE82AF83C007C0061205ADD006D0078F82C007C0061205B318
:2004FA00D006D0078E821205B38521821205B312068DAE827F00C007C00612068DAD82D0E4
:20051A0006D0077C00ED4207EC4206C007C0061205B0D006D0078F828E8322AE82AF83C097
:20053A0007C0061205AD75820012074D75820912074D75820412074DD006D0078E82120716
:20055A004D85238212074D85258212074D85278212074D85298212074D852B8212074D024E
:02057A0005B0CA
:20057C00AE82AF83C3E49E74808FF063F08095F0501E7C7D7D001CBCFF011DC3E49C7480DD
:20059C008DF063F08095F040ED1EBEFF011F80D422C2A622D2A6228582E0FFA2E792A5D230
:2005BC00A7C2A7C2A533A2E792A5D2A7C2A7C2A533A2E792A5D2A7C2A7C2A533A2E792A53D
:2005DC00D2A7C2A7C2A533A2E792A5D2A7C2A7C2A533A2E792A5D2A7C2A7C2A533A2E792F0
:2005FC00A5D2A7C2A7C2A533A2E792A5D2A7C2A7C2A5332222AF828F06530680EE24FF92FC
:20061C00A5D2A7C2A7C2A5EF2FFF548024FF92A5D2A7C2A7C2A5EF2FFF548024FF92A5D21F
:20063C00A7C2A7C2A5EF2FFF548024FF92A5D2A7C2A7C2A5EF2FFF548024FF92A5D2A7C20D
:20065C00A7C2A5EF2FFF548024FF92A5D2A7C2A7C2A5EF2FFF548024FF92A5D2A7C2A7C2ED
:20067C00A5EF2F548024FF92A5D2A7C2A7C2A52222740033D2A7A2A492E0C2A733D2A7A251
:20069C00A492E0C2A733D2A7A2A492E0C2A733D2A7A2A492E0C2A733D2A7A2A492E0C2A758
:2006BC0033D2A7A2A492E0C2A733D2A7A2A492E0C2A733D2A7A2A492E0C2A7FF85E08222AF
:2006DC00D2A7A2A4E433FFC2A7EF2FFFD2A7A2A4E433FEEF4206C2A7EE2EFED2A7A2A4E472
:2006FC0033FFEE4207C2A7EF2FFFD2A7A2A4E433FEEF4206C2A7EE2EFED2A7A2A4E4334249
:20071C0006C2A7EE2EFED2A7A2A4E433FFEE4207C2A7EF2FFFD2A7A2A4E433FEEF4206C2D5
:20073C00A7EE2EFED2A7A2A4E4334EF582C2A72222AF828F06530680EE24FF92A5D2A7C272
:20075C00A7C2A5EF2FFF548024FF92A5D2A7C2A7C2A5EF2FFF548024FF92A5D2A7C2A7C2EC
:20077C00A5EF2FFF548024FF92A5D2A7C2A7C2A5EF2FFF548024FF92A5D2A7C2A7C2A5EFA1
:20079C002FFF548024FF92A5D2A7C2A7C2A5EF2FFF548024FF92A5D2A7C2A7C2A5EF2F5492
:2007BC008024FF92A5D2A7C2A7C2A522D2A7A2A4E433FFC2A7EF2FFFD2A7A2A4E433FEEFBA
:2007DC004206C2A7EE2EFED2A7A2A4E433FFEE4207C2A7EF2FFFD2A7A2A4E433FEEF420695
:2007FC00C2A7EE2EFED2A7A2A4E4334206C2A7EE2EFED2A7A2A4E433FFEE4207C2A7EF2F26
:1C081C00FFD2A7A2A4E433FEEF4206C2A7EE2EFED2A7A2A4E4334EF582C2A7220D
:2008380012193DF59910990280FB2285829910990280FB22AD82AE83AFF03098147590009A
:200858008D828E838FF0E59912188FC298759900227590FF22AD82AE83AFF07C00EC2DF96D
:20087800E43EFA8F0389828A838BF012193D601C89828A838BF0C007C006C005C004120878
:0D08980038D004D005D006D0070C80D12246
:2008A500752D00752E007F0090002E75F040C007120B6DAD2E7E00752F2D8E307531408D60
:2008C500828E83120B10D007E52D60057560008002056030B203020B0CE4B52E0280077487
:2008E50001B52E0880047F0C80027F2CE52DFE30E4178F0DE4F50EFD74105EF50F8D1090FD
:200905000002C00712043AD007E52D30E3648F057E008D0D8E0E750F018E10900000C00797
:20092500C006C00512043AD005D0068D0D8E0E750F01751000900001C006C00512043AD0B0
:2009450005D0068D0D8E0E750F02751000900001C006C00512043AD005D006AB2D7C007497
:20096500085BF50F8C108D0D8E0E90000212043AD007E52D20E203020AB7C2A290002E750F
:20098500F040C007120C60758200120BD4AE82D007EE24FA5003020A62EE2E2E9009A57326
:2009A5000209B70209CE0209EC020A0A020A28020A4690003D75F040C00712086DD007AEBF
:2009C5006174302EF53F020A62901B0575F080C00712086D753A10753B1B753C80852E826A
:2009E500120E71D0078076901B2675F080C00712086D753A31753B1B753C80852E82120E5F
:200A050071D0078058901B4775F080C00712086D753A5B753B1B753C80852E82120E71D0F0
:200A250007803A901B6C75F080C00712086D753A6C753B1B753C80852E82120E71D0078072
:200A45001C901B8475F080C00712086D753A8F753B1B753C80852E82120E71D007753A3D50
:200A6500753B00753C40852E82C007120E71D0078F057E008D0D8E0E750F208E1090000151
:200A8500C007C006C00512043AD2A2901BA575F08012086D120F80D005D006AB2D7C00746B
:200AA500045BF50F8C108D0D8E0E90000212043AD007E52D30E1348F057E008D0D8E0E752F
:200AC5000F088E10900001C007C006C00512043AD005D006AB2D7C0074025BF50F8C108D2C
:200AE5000D8E0E90000212043AD007E52DFE30E0138F0DE4F50EFF74015EF50F8F109000D4
:200B05000212043A7590007590FF22AE82AF83C007C0061205AD75820012074D7582021238
:200B2500074DD006D007BE0005BF00028008BE0113BF0010800875820812074D8006758298
:200B45002812074DAD2FAE30AF31C007C006C0051207C8AC82D005D006D0078D828E838FD6
:200B6500F0EC12188F0205B0AD82AE83AFF0C007C006C0051205AD75820012074D758217A4
:200B850012074D75820012074D1207C8858232D005D006D0077B00BB080050308BF005F0C3
:200BA50079017A008006E929F9EA33FAD5F0F7A8327C00E85201EC5202E94A600C8B048D4C
:200BC500828E838FF0EC12188F0B80CB0205B0E582FF243DF98706BE3A0280047582012267
:200BE500EF04243DF98706BE3C02800475820222EF04243DF8765B74022F243DF98706BE14
:200C05003000400B74022F243DF9E724C650047582032274032FF55AE55A243DF98707BF39
:200C25003E02801FC3E55A955B5018BF6100400BEF24854006EF24E0F7800475820422059D
:1B0C45005A80D5C3E55A955B5009E55A243DF8765D8004758205227582002274
:201B05004E6F203A20466F756E6400496E636F727265637420666F726D61743A20223A2263
:201B2500004E6F203C20666F756E6400496E636F727265637420666F726D61743A20223C41
:201B450022004E6F20525455204E756D62657220666F756E640057726F6E67205254552079
:201B65006E756D626572004572726F7220696E206D65737361676520666F726D6174004EDA
:201B85006F203E20666F756E6400496E636F727265637420666F726D61743A20223E220009
:031BA5000D0A0026
:200C600085823385833485F0357C0012193DFB6005BB0154802A752108752200900028C0A9
:200C8000041204E28582628583637521087522009000261204E2858264858365D00480284D
:200CA000752128752200900028C0041204E28582628583637521287522009000261204E294
:200CC000858264858365D004C0041205AD8563821205B38562821205B3D0048533828534B2
:200CE000838535F012193DFB6005BB0118800C758218C0041205B3D004800A758238C004B1
:200D00001205B3D0048533828534838535F012193DFB6009BB0103020D98020DE37B00BBBB
:200D20000600500AC0031207C8D0030B80F112068DAB827A008B378A3612068DAB827A0046
:200D4000E5374202C2A1E4F538F539C3E5389BE53964808AF063F08095F05036E538243D3E
:200D6000F9C003C002C00112068DE582D001D002D003F7AD5B7F00C3E5389DE53964808F26
:200D8000F063F08095F0500A0538E4B538BD053980B9D2A18B04804BC2A17E007F00C3EE91
:200DA0009564EF64808565F063F08095F05030EE243DF9C007C006C00112068DE582D00142
:200DC000D006D007F7AB5B7D00C3EE9BEF64808DF063F08095F050070EBE00C20F80BFD2F3
:200DE000A1AC64C0041205B0D004E5642562F562E5653563F5638533828534838535F01250
:200E0000193DFF6005BF01668033E563F5133395E0F51485621575160075110C751200900E
:200E20000028C00412046A750D0C750E00750F4075100090000112043AD0048031E563F549
:200E4000133395E0F51485621575160075112C751200900028C00412046A750D2C750E00E1
:110E6000750F4075100090000112043AD0048C822253
:200E7100AF82E4BF000104FE7005BF013A801C752108752200900024C007C0061204E2858C
:200E91008262858363D006D0078021752128752200900024C007C0061204E28582628583A5
:200EB10063D006D0078005E4F562F563C007C0061205AD8563821205B38562821205B3D071
:200ED10006D007EE7005BF01208010758214C007C00612074DD006D007800E758234C00726
:200EF100C00612074DD006D007C2A07D00ED253AFAE4353BFBAC3C8A828B838CF012193DAE
:200F1100FC60148C82C007C006C0051205B3D005D006D0070D80D6D2A07C00ED2562F56288
:200F3100EC3563F563C007C0061205B0D006D007EE7005BF0138801BE563F5133395E0F5E0
:200F51001485621575160075110C75120090002402046AE563F5133395E0F5148562157536
:0F0F7100160075112C75120090002402046A22DC
:18008000755A00755B1D755C00755D00755E00755F00756000756100B7
:200F80007E007F00AC5B7D00C3EE9CEF64808DF063F08095F0500DEE243DF876000EBE00F5
:080FA000E30F80E0755A002206
:0900980075666475670A7568015C
:200FA800901BA875F08012086DAF6174302FF582120843901BC075F08012086D1205AD75A3
:200FC80082001205B375820F1205B37582001205B312068D85826990006975F04012118CCA
:200FE80075822E12084312068D85826990006975F04012118C75822E12084312068D8582D7
:201008006990006975F04012118C75822E12084312068D85826990006975F04012118C121C
:2010280005B0901BCF75F08012086D1205AD7582001205B37582051205B37582001205B301
:2010480012068D85826990006975F04012118C75822E12084312068D85826990006975F031
:201068004012118C75822E12084312068D85826990006975F04012118C75822E1208431201
:20108800068D85826990006975F04012118C1205B0901BDF75F08012086D1205AD75820080
:2010A8001205B37582011205B37582001205B312068D85826990006975F04012118C758282
:2010C8002E12084312068D85826990006975F04012118C75822E12084312068D85826990F4
:2010E800006975F04012118C75822E12084312068D85826990006975F04012118C1205B080
:20110800901BEB75F08012086D1205AD7582001205B37582091205B37582001205B312069D
:201128008D85826990006975F0401212F312068D85826990006975F0401212F312068D8501
:20114800826990006975F0401212F312068D85826990006975F0401212F312068D85826908
:2011680090006975F0401212F312068D85826990006975F0401212F31205B0901BFB75F016
:201188008002086DAD82AE83AFF07C0012193DFB7A00757E648C7F8B828A83C007C006C02F
:2011A80005C00412198FAA82AB83D004D005D006D007EA4B601674302AF582C007C006C0B7
:2011C80005120843D005D006D0077C018D828E838FF012193DFB7A00757E648A7F8B828A33
:2011E80083C007C006C005C004121959AA82D004D005D006D0078D828E838FF0EA12188F06
:201208007B00757E0A8B7F8A828B83C007C006C005C00412198FE5828583F0D004D005D082
:2012280006D00745F07031BC012E8D828E838FF012193DFC7B00757E0A8B7F8C828B83C0A7
:2012480007C006C00512198FAB8274302BF582120843D005D006D0078D828E838FF012191E
:201268003DFC7B00757E0A8B7F8C828B83C007C006C00512198FE5828583F0D005D006D0A9
:201288000745F0602E8D828E838FF012193DFC7B00757E0A8B7F8C828B83C007C006C00589
:2012A80012198FAB8274302BF582120843D005D006D0078D828E838FF012193DFC7B007527
:2012C8007E0A8B7F8C828B83C007C006C005121959AB82D005D006D0078D828E838FF0EB49
:2012E80012188F74302BF582020843AD82AE83AFF012193DC4540FFCBC0A0040188C0374EF
:20130800372BF582C007C006C005120843D005D006D007801474302CF582C007C006C0058E
:20132800120843D005D006D0078D828E838FF012193DFFFE53060FBE0A00400E8F06740F2C
:201348005E2437F582120843800A740F5F2430F5821208437582200208437E007F00E55AC4
:20136800243DF98705BD3D02800FED600C7C00ED2EFEEC3FFF055A80E5055AE4BE9904BFBB
:20138800000104FD7059BED106BF000302142CBEEA05BF0002805FBEFB05BF00028014BEC3
:2013A8002105BF01028066BE2506BF010302144302145AE55A243DF98704BC30004012EC94
:2013C80024C6400DE55A04243DF98703BB2E028006755D0102145DEC24D0F56A02145D90AE
:2013E800006A75F040C007C006C00512162CD005D006D007805F90006A75F040C007C006A3
:20140800C00512162CD005D006D007804890006A75F040C007C006C00512162CD005D00671
:20142800D007803190006A75F040C007C006C005121751D005D006D007801A90006A75F036
:2014480040C007C006C005121840D005D006D0078003755D017401B55D0C901BFE75F0808F
:2014680012086D021609ED7040BED106BF000302154ABEEA05BF00028062BEFB05BF000298
:201488008015BE2106BF0103021517BE2506BF010302157D021609856A61901C1775F08080
:2014A80012086D855E5C021609856A19751A00856B1B751C00856C1D751E00856D1F7520C3
:2014C8000075170475180090000F1204A0901C3275F08012086D855E5C021609856A19756B
:2014E8001A00856B1B751C00856C1D751E00856D1F7520007517047518009000051204A07F
:20150800901C4A75F08012086D855E5C021609856A19751A00856B1B751C00856C1D751E2D
:2015280000856D1F7520007517047518009000011204A0901C6B75F08012086D855E5C02D5
:201548001609AE6A7F00856B238F24856C258F26856D278F28856E298F2A856F2B8F2C8E2F
:20156800828F83120535901C8875F08012086D855E5C021609750D0C750E00750F10751059
:201588000090000112043AAF6ABFE702802CBFE964750D0C750E00750F027510009000003D
:2015A80012043A750D0C750E00750F0175100090000112043A755C00803E750D0C750E0037
:2015C800750F0175100090000012043A750D0C750E00750F0175100090000112043A750D9B
:2015E8000C750E00750F0275100090000112043A755C018003855E5C901CA975F080120880
:201608006D855E5C7E007F00C3EE9406EF64809480500DEE246AF876000EBE00EB0F80E872
:20162800755D002285827085837185F072E4FCFBF574F575F573C3E55A955B400302174033
:20164800E55A243DF9E7FD7003021740BD3000403FED24C6403AEB24FD40357E00ED24D09C
:20166800F582EE34FFF583EB2466F987068E7E757F00C004C0031218AAAD82AE83D003D0F9
:2016880004ED2574F574EE3575F5750B055A80A6E55A243DF98706BE2E028003021730EBF2
:2016A8007003021730BB021B757E0A757F00857482857583C00412198F858274858375D05F
:2016C80004801CBB0119757E64757F00857482857583C00412198F858274858375D004C33D
:2016E80074FF957474808575F063F08095F05012755D01901CB675F080C00412086DD00495
:201708008036E5732570FDE43571FEAF72AA748D828E838FF0EA12188FE4F574F5750573E9
:20172800AC73FB055A02163E901CB875F080C00412086DD004755D01BC040122901CBA75D9
:20174800F08012086D755D012285827685837785F0787C00E55A243DF9E7FB604FBB2E021B
:20176800804A8B7A90007A75F040C0041217C5E57AC454F0FB055AE55A243DF9877A900046
:201788007A75F040C0031217C5D003D004E57A4BF579055AEC2576FAE43577FBAF788A8214
:2017A8008B838FF0E57912188F0C80A8BC060122901CBC75F08012086D755D0122AD82AEBE
:2017C80083AFF012193DFCBC30004013EC24C6400E8C03EB24D08D828E838FF002188FBCA6
:2017E80061004013EC2499400E8C03EB24A98D828E838FF002188FBC41004011EC24B94050
:201808000CEC24C98D828E838FF002188F901CCE75F080C007C006C00512086DD005D006B0
:20182800D0078D828E838FF0120838901BFB75F08012086D755D012285827B85837C85F056
:201848007D7B007C007A00BA03005014E55A243DF987077E00EF2BFBEE3CFC055A0A80E7C1
:20186800BBE905BC00028006BBE710BC000D857B82857C83857DF0EB02188F755D01901CED
:07188800D875F08002086D25
:201BA8000D0A43757272656E7420436F6E6669670D0A5254553A20000D0A49502041646468
:201BC800726573733A20000D0A5375626E6574204D61736B3A20000D0A476174657761796F
:201BE8003A20000D0A4D414320416464726573733A20000D0A00496E76616C696420436FAB
:201C08006D6D616E6420466F726D61740D0A005375636365737366756C6C79207570646140
:201C2800746564205254550D0A005375636365737366756C6C7920757064617465642049B8
:201C480050005375636365737366756C6C792075706461746564205375626E6574204D61C1
:201C6800736B005375636365737366756C6C79207570646174656420476174657761790080
:201C88005375636365737366756C6C792075706461746564204D4143204164647265737359
:201CA800004368616E676564206D6F6465003100320033004E6F7420656E6F7567682076AA
:201CC800616C7565730054656D702069733A2000496E76616C6964206D6F646520666F7203
:061CE8006D61740D0A009D
:06005000E478FFF6D8FD84
:20002E007900E94400601B7A00901CEE780175A000E493F2A308B8000205A0D9F4DAF2756E
:02004E00A0FF11
:1B188F0020F71130F6138883A88220F509F6A8837583002280FEF280F5F02258
:1D18AA00E582857EF0A4C582C0F0857FF0A4D0F025F0C583857EF0A42583F583229E
:2018C700E57E457F60467A01E57E25E0F57EE57F334012F57FE582957EE583957F40030A3E
:2018E70080E6C3E57F13F57FE57E13F57EC3E582957EF5F0E583957F4005F58385F082C3CF
:0D190700E57F13F57FE57E13F57EDAE12222
:201914007A10E4FBFCE58225E0F582E58333F583EB33FBEC33FCEB957EF5F0EC957F4006FB
:09193400FCABF0438201DADD2274
:200056007800E84400600A790175A000E4F309D8FC7800E84400600C7900900001E4F0A3A8
:04007600D8FCD9FADF
:0D00210075817F1219C7E582600302001E81
:1C193D0020F71430F6148883A88220F507E6A88375830022E280F7E49322E022B9
:20195900C2D5E58330E70DD2D5E4C39582F582E49583F583E57F30E70BE4C3957EF57EE464
:16197900957FF57F1218C730D50BE4C39582F582E49583F5832204
:20198F00C2D5E58330E70DD2D5E4C39582F582E49583F583E57F30E70DB2D5E4C3957EF507
:1819AF007EE4957FF57F12191430D50BE4C39582F582E49583F583221C
:0419C7007582002203
:00000001FF
